:020000040000FA
:04000000CCEF3EF013
:107C350000300802200621004572726F722100C5CE
:107C450084C5B428EF3EF02AEF3EF023EF3EF01254
:107C550000C582C5B231EF3EF033EF3EF02CEF3E6A
:107C6500F01200C580C5B03AEF3EF03CEF3EF0356E
:107C7500EF3EF012001D6E9EA843EF3EF045EF3E2D
:107C8500F03EEF3EF01DC0ADFF120093809382C71A
:107C95008EC79CC68AC650F00B0809C66E630EC80F
:107CA5006E1200949C948E150EAF6EAC84AC98AB9E
:107CB5008EAB88AC9CAB9CAC8A12001D6E1DC0C9F6
:107CC500FFC7B068EF3EF06AEF3EF063EF3EF06D40
:107CD500EC3EF01200C7B472EF3EF074EF3EF06D6B
:107CE500EF3EF0C5AC79EF3EF07BEF3EF07DEF3E29
:107CF500F022EC3EF012001D6EC586C7A085EF3E52
:107D0500F087EF3EF080EF3EF0C9CF1EF06DEC3E00
:107D1500F01DB002D0C59A01D0C58AC588C5B896F0
:107D2500EF3EF098EF3EF091EF3EF01E5012004D01
:107D35006F6E000000000000005475650000000033
:107D450000000057656E00000000000000546875D3
:107D550000000000000000467269000000000000FD
:107D6500005361740000000000000053756E0000B0
:107D750000000000000000000000000000000000FE
:107D850000000000000000000000000000000000EE
:107D95000000000F0EF66E7E0EF76E000EF86E01F7
:107DA500EE00F010EEE1F00900F5CFEEFFE550E151
:107DB50050FAE1340EF66E7D0EF76E000EF86E0089
:107DC500EE60F010EE64F00900F5CFEEFFE550E14E
:107DD50050FAE1350EF66E7C0EF76E000EF86E0069
:107DE500EE01F010EE0FF00900F5CFEEFFE550E1E2
:107DF50050FAE100EE10F00D0EEE6AE806FDE10026
:097E05000EF86E000178EF3FF069
:107E0F004A756E00000000000000000000000046F0
:107E1F0065620000000000000000000000004D61DE
:107E2F0072000000000000000000000000417072AE
:107E3F000000000000000000000000004D6179000C
:107E4F0000000000000000000000004A756E0000F6
:107E5F00000000000000000000004A756C000000E8
:107E6F0000000000000000000041756700000000E6
:107E7F0000000000000000005365700000000000CB
:107E8F00000000000000004F6374000000000000BD
:107E9F000000000000004E6F7600000000000000A0
:107EAF0000000000004465630000000000000000B7
:107EBF0000000000000000000000000000000000B3
:107ECF0000000000000000000000000000000000A3
:107EDF000000000000000000000000000000000093
:107EEF000054EC3EF048EC3EF034EC3EF0D00E6027
:107EFF00EC3EF0000E60EC3EF0000E1C6E010E1C0E
:107F0F0024D96EDA6A000EDA22DF5060EC3EF002FE
:107F1F000E206E040E1F6EBA0EE82EFED71F2EFC1B
:107F2F00D7202EFAD700D01C2A060E1C64A2EF3FD2
:107F3F00F0A4EF3FF086EF3FF022EC3EF034EC3E42
:107F4F00F0D00E60EC3EF0000E60EC3EF02BEC3EFD
:107F5F00F0D10E60EC3EF0000E7EEC3EF0106E00A5
:107F6F000E7EEC3EF0116E000E7EEC3EF0126E00B7
:107F7F000E7EEC3EF0136E000E7EEC3EF0146E00A3
:107F8F000E7EEC3EF0156E010E7EEC3EF0166E226C
:107F9F00EC3EF0000E1B6E100E1B24D96EDA6A0039
:107FAF000EDA22DF503DEC3EF0030E206E8A0E1FDC
:107FBF006E560EE82EFED71F2EFCD7202EFAD71B9B
:107FCF002A060E1B64EEEF3FF0F0EF3FF0D3EF3FCA
:107FDF00F0240E206E830E1F6ECF0EE82EFED71FDD
:107FEF002EFCD7202EFAD700F0A6EF3FF000EF00BF
:017FFF00F091
:020000040020DA
:08000000FFFFFFFFFFFFFFFF00
:020000040030CA
:0E000000000C191EFF0384FF0FC00FE00F401D
:00000001FF
