:020000040000FA
:04000000C0EF3DF020
:10798E00949C948E150EAF6EAC84AC98AB8EAB8877
:10799E00AC9CAB9CAC8A1200446174653A200054D6
:1079AE00696D653A20004572726F7221002E2000BB
:1079BE002D003A009EAAE6EF3CF0E8EF3CF0E1EF36
:1079CE003CF0ABA2EDEF3CF0EFEF3CF0F2EF3CF011
:1079DE00AB9800F0AB88AE501200296E29C02AF089
:1079EE002A380F0B30092A6E2A503CEC3DF029C084
:1079FE002AF02A500F0B2A6E2A5030092A6E2A506E
:107A0E003CEC3DF0120015EF3DF029C0D9FF2AC025
:107A1E00DAFFDF503CEC3DF0294A2A2A29C0D9FF73
:107A2E002AC0DAFFDF50D8A41FEF3DF021EF3DF062
:107A3E000CEF3DF01200000E936EC30E296ECD0EAC
:107A4E00E82EFED7292EFCD700F0020E65EC3DF095
:107A5E00280E65EC3DF0010E65EC3DF00C0E65EC6C
:107A6E003DF0060E65EC3DF01200286E28C027F0A2
:107A7E00F00E27168A500F0B27108A6E8A808A8284
:107A8E0000F08A920D0E276EFC0EE82EFED7272EE2
:107A9E00FCD728C027F0273AF00E27168A500F0B76
:107AAE0027108A6E8A8200F08A92270E276EF50EB4
:107ABE00E82EFED7272EFCD700F01200286E28C025
:107ACE0027F0F00E27168A500F0B27108A6E8A9019
:107ADE008A8200F08A920D0E276EFC0EE82EFED7DB
:107AEE00272EFCD728C027F0273AF00E27168A50EB
:107AFE000F0B27108A6E8A8200F08A92270E276E4D
:107B0E00F50EE82EFED7272EFCD700F012004D6F93
:107B1E006E000000000000005475650000000000BB
:107B2E00000057656E0000000000000054687500EC
:107B3E000000000000004672690000000000000016
:107B4E005361740000000000000053756E000000C9
:107B5E000000000000000000000000000000000017
:107B6E000000000000000000000000000000000007
:107B7E000000A10EF66E7C0EF76E000EF86E01EE92
:107B8E0000F010EEE1F00900F5CFEEFFE550E15008
:107B9E00FAE11C0EF66E7B0EF76E000EF86E00EE1E
:107BAE0060F010EE64F00900F5CFEEFFE550E15005
:107BBE00FAE1A60EF66E790EF76E000EF86E00EE76
:107BCE0001F010EE1CF00900F5CFEEFFE550E1508C
:107BDE00FAE100EE1DF00A0EEE6AE806FDE1000E77
:107BEE00F86E0001FBEF3DF0C7EC3CF022EC3DF0EF
:107BFE00000E306E1D0E3024D96EDA6A000EDA22B7
:107C0E00E1EC3CF0DF6E302A060E306411EF3EF0F0
:107C1E0013EF3EF001EF3EF0840E65EC3DF01F5089
:107C2E00F4EC3CF01B0E296E000E2A6E0AEC3DF0B1
:107C3E001E50F4EC3CF01B0E296E000E2A6E0AEC60
:107C4E003DF01D50F4EC3CF0C10E65EC3DF02050C3
:107C5E00C1EC3EF0160E296E000E2A6E0AEC3DF0B7
:107C6E002150F4EC3CF0190E296E000E2A6E0AEC2F
:107C7E003DF0225036EC3FF0190E296E000E2A6EA2
:107C8E000AEC3DF02350F4EC3CF0FFEF3DF000EF3A
:027C9E0000F0F4
:107CA1004A756E0000000000000000000000004660
:107CB10065620000000000000000000000004D614E
:107CC100720000000000000000000000004170721E
:107CD1000000000000000000000000004D6179007C
:107CE10000000000000000000000004A756E000066
:107CF100000000000000000000004A756C00000058
:107D01000000000000000000004175670000000055
:107D1100000000000000000053657000000000003A
:107D2100000000000000004F63740000000000002C
:107D31000000000000004E6F76000000000000000F
:107D41000000000000446563000000000000000026
:107D51000000000000000000000000000000000022
:107D61000000000000000000000000000000000012
:107D71000000000000000000000000000000000002
:107D8100002D6E2DC02EF02E500F0B2E6E2E50306A
:107D9100092E6E0CEF3FF09C0E296E000E2A6E0A22
:107DA100EC3DF035EF3FF0600E296E000E2A6E0AB1
:107DB100EC3DF035EF3FF06A0E296E000E2A6E0A97
:107DC100EC3DF035EF3FF0740E296E000E2A6E0A7D
:107DD100EC3DF035EF3FF07E0E296E000E2A6E0A63
:107DE100EC3DF035EF3FF0880E296E000E2A6E0A49
:107DF100EC3DF035EF3FF0920E296E000E2A6E0A2F
:107E0100EC3DF035EF3FF00F0E296E000E2A6E0AA1
:107E1100EC3DF035EF3FF02E502B6E2C6A2C5000CC
:107E21000AD8B416EF3FF004EF3FF02B50310AD8D7
:107E3100B4CCEF3EF0030AD8B4D4EF3EF0010AD837
:107E4100B4DCEF3EF0070AD8B4E4EF3EF0010AD803
:107E5100B4ECEF3EF0030AD8B4F4EF3EF0010AD8D7
:107E6100B4FCEF3EF004EF3FF012002D6E2DC02F59
:107E7100F02F380F0B30092F6E2DC02EF02E500F22
:107E81000B2E6E2E5030092E6ECAEF3FF0310E2FA1
:107E910018D8A44EEF3FF050EF3FF058EF3FF08776
:107EA1000E296E010E2A6E0AEC3DF0FFEF3FF00F36
:107EB1000E296E000E2A6E0AEC3DF0FFEF3FF03105
:107EC1000E2F18D8A467EF3FF069EF3FF071EF3F35
:107ED100F0960E296E010E2A6E0AEC3DF0FFEF3F7F
:107EE100F0000E296E010E2A6E0AEC3DF0FFEF3F05
:107EF100F0310E2F18D8A480EF3FF082EF3FF08AC7
:107F0100EF3FF0A50E296E010E2A6E0AEC3DF0FF3F
:107F1100EF3FF00F0E296E010E2A6E0AEC3DF0FFC5
:107F2100EF3FF01E0E296E010E2A6E0AEC3DF0FFA6
:107F3100EF3FF02D0E296E010E2A6E0AEC3DF0FF87
:107F4100EF3FF03C0E296E010E2A6E0AEC3DF0FF68
:107F5100EF3FF04B0E296E010E2A6E0AEC3DF0FF49
:107F6100EF3FF05A0E296E010E2A6E0AEC3DF0FF2A
:107F7100EF3FF0690E296E010E2A6E0AEC3DF0FF0B
:107F8100EF3FF0780E296E010E2A6E0AEC3DF0FFEC
:107F9100EF3FF02E502B6E2C6A2C50000AD8B4D42F
:107FA100EF3FF058EF3FF02B50300AD8B447EF3F86
:107FB100F0010AD8B460EF3FF0030AD8B479EF3F7B
:107FC100F0010AD8B492EF3FF0070AD8B49AEF3F14
:107FD100F0010AD8B4A2EF3FF0030AD8B4AAEF3FE8
:107FE100F0010AD8B4B2EF3FF00F0AD8B4BAEF3FAC
:0F7FF100F0010AD8B4C2EF3FF058EF3FF0120092
:020000040020DA
:08000000FFFFFFFFFFFFFFFF00
:020000040030CA
:0E000000000C191EFF0384FF0FC00FE00F401D
:00000001FF
